:020000040000FA
:1000000001288316813086008801870183128601CA
:100010008801FF3087000811562202302E22562216
:1000200028302E2256220330810001302E226322F6
:1000300087210E302E22632206302E22632280304A
:100040002E226322E421C0302E2263220322810B60
:10005000152801302E22632287210E302E226322A2
:1000600006302E22632280302E22632283168130B6
:10007000860088018701831286018801FF3087008E
:1000800001302E22632287210E302E226322063079
:100090002E226322A621053081003030B0002321BA
:1000A0003030B002053081003030B10055213030A1
:1000B000B10201302E2263225830422287210130C2
:1000C0002E226322C521053081003030B2003C2150
:1000D0003030B202053081003030B3006E21303054
:1000E000B3023008B400B40E3108B40401302E223B
:1000F000632287210E302E22632206302E226322B5
:1001000080302E2263222730422263223D30422259
:100110006322273042226322340887000617861F95
:100120008F2806135622330887000617861F962845
:10013000061356223208800003013107800B9D28E8
:10014000C100C0010A30C102C00AC11FA328C107F3
:10015000C0034108B7004008B8003208800003011E
:100160003007800BB028C100C0010A30C102C00AAC
:10017000C11FB628C107C0034008B9004108B8072D
:100180000318B90A8316FF3087008312861FC6281A
:100190000708B6000617861BCB280613861FCE2835
:1001A0000708C2000617861BD3280613861FD62809
:1001B0000708C3000617861BDB2806133708C2078B
:1001C0004208C100C0010A30C00AC102C11FE428B0
:1001D000C003C1074108B7004008B8074308B80783
:1001E0003808C100C0010A30C00AC102C11FF4288A
:1001F000C003C1074108B8004008B90701302E22EA
:10020000632287210E302E22632206302E226322A3
:1002100080302E2263228D21C0302E226322303086
:10022000B707B807B907B60739084222632238086A
:100230004222632237084222632236084222632286
:10024000061820293628C0302E2263223008422288
:10025000632206182C2930295622810B23293B2999
:10026000B00A30083A3A03193829053081002329A9
:100270003030B00023290800C0302E22632232081B
:10028000422263220618452949295622810B3C291E
:100290005429B20A32083A3A03195129053081002B
:1002A0003C293030B2003C290800C1302E226322A4
:1002B00031084222632206185E2962295622810BE8
:1002C00055296D29B10A31083A3A03196A290530CE
:1002D000810055293030B10055290800C1302E2247
:1002E0006322330842226322061877297B2956228B
:1002F000810B6E298629B30A33083A3A03198329F8
:10030000053081006E293030B3006E2908000230BC
:1003100080005622800B8929080027304222632260
:10032000523042226322453042226322533042221D
:1003300063225530422263224C30422263225430E1
:1003400042226322273042226322080027304222C1
:1003500063224E30422263227530422263226D3086
:1003600042226322623042226322653042226322AB
:1003700072304222632220304222632231304222F4
:100380006322273042226322080027304222632260
:100390004E30422263227530422263226D30422267
:1003A000632262304222632265304222632272302D
:1003B00042226322203042226322323042226322D0
:1003C0002730422263220800573042226322453000
:1003D000422263224C304222632243304222632273
:1003E0004F30422263224D30422263224530422266
:1003F0006322203042226322543042226322303072
:100400004222632208004D304222632255304222AC
:1004100063224C304222632254304222632249300C
:10042000422263225030422263224C304222632215
:100430004930422263224330422263224130422229
:1004400063225430422263224930422263224F30D9
:10045000422263224E30422263220800C500F03956
:100460008800081088100815702208117022C50E27
:100470004508F03988000810881008157022081106
:1004800070220800C500F03988000814881008158B
:10049000702208117022C50E4508F0398800081432
:1004A0008810081570220811702208008316003089
:1004B000900058308E009E308F0083120C10101464
:1004C0000C1C602A080083160030900068308E00F3
:1004D000C5308F0083120C1010140C1C6D2A0800FC
:1004E00083160030900018308E00FC308F0083128D
:0A04F0000C1010140C1C7A2A0800EE
:0404FA000034003496
:02400E00F23F7F
:00000001FF
