:020000040000FA
:100000000128831680308600FF3087008801831224
:10001000860187010613861F0B280708B300061701
:10002000861B10280613861F13280708B200061720
:10003000861B1828061333080F39B1003308F0392E
:10004000B000B00E30083208800003013107800B89
:100050002628B500B4010A30B502B40AB51F2C2811
:10006000B507B4033508B6003408B70036083208BF
:10007000800003013007800B3A28B500B4010A3034
:10008000B502B40AB51F4028B507B4033408B80058
:100090003508B7070318B80A380883168701831292
:1000A000360887000617861F532806136620370870
:1000B00087000617861F5A2806136620380887000F
:1000C0000617861F61280613662001288316003054
:1000D000900058308E009E308F0083120C10101448
:0600E0000C1C7028080052
:0400E60000340034AE
:02400E00F23F7F
:00000001FF
